:100000005AC0D3C173C072C071C070C06FC06EC01F
:100010006DC06CC06BC06AC069C068C067C066C094
:1000200065C064C063C00403090418037200610062
:10003000700068006E00650074002E006E006500A0
:1000400074001603560069007200740075006100A8
:100050006C0042006F0079000A033100300030006C
:10006000300005010905A1010901A100093009318C
:10007000150026FF0075089502810209330934092D
:1000800035150026FF03750A950381027501950257
:100090008103C00509190129101500250175019575
:1000A000108102C0120101010000000881177D05C6
:1000B00000010102030111241FBECFE5D4E0DEBF21
:1000C000CDBF10E0A0E6B0E0EEE1FCE002C005909C
:1000D0000D92AA39B107D9F710E0AAE9B0E001C042
:1000E0001D92A53FB107E1F746D397C589CF85B7E4
:1000F000836085BF8BB780648BBF83EC8093CB001C
:1001000008950F931F93CF93DF939091DB001916FF
:100110000CF0AFC02091D8008091D7008D3209F04B
:100120009EC08AE5809361009B3009F098C0CCE0C6
:10013000D0E0C21BD109C152DF4F8881807609F01F
:1001400080C01092C9008981882359F41092CA0096
:1001500089EC90E09093DA008093D90030E822E0B7
:1001600077C0853021F48A818093DC0068C08630B6
:1001700009F04AC08B81813009F441C0823019F402
:10018000CE0176D260C0833069F58A81882349F434
:1001900086E290E09093DA008093D90030EC24E07E
:1001A00057C0813049F48AE290E09093DA0080935E
:1001B000D90030EC28E14CC0823049F482E490E070
:1001C0009093DA008093D90030EC26E141C083306F
:1001D000E9F588E590E09093DA008093D90030EC5F
:1001E0002CE036C0813249F48DEA90E09093DA0039
:1001F0008093D90030EC29E02BC0823239F5CE0152
:1002000037D2282F30EC24C0883019F48EED90E0DE
:100210000AC0893021F48A818093DE0010C08A30C0
:1002200049F489EC90E09093DA008093D90030E8AB
:1002300021E00EC08B3019F483EC8093CB0030E8C2
:1002400006C0CE0143D2282F30E802C030EC20E0B7
:100250008F81882339F48E81821728F003C030E81B
:1002600080E001C0822F30939A008093600010924A
:10027000DB008091610084FF49C0809160008F3F66
:1002800009F444C0182F893008F018E0811B8093CE
:10029000600080919A0080FD02C00BE401C003EC75
:1002A0008F5F80939A002091D9003091DA0086FD0B
:1002B00005C0D901912FE1ECF0E011C0A1ECB0E054
:1002C00080E090E006C0F901E80FF91FE491ED939A
:1002D00001961817C1F705C08D918193915099230C
:1002E000D9F7F901E10FF11DF093DA00E093D9009D
:1002F00081EC90E0612F55D0183019F08FEF80938A
:1003000060000093C0001C5F109361009AE080B30E
:10031000857031F49150D9F71092DC001092D6001C
:10032000DF91CF911F910F9108951F93DC01162F3C
:100330008091620084FF0AC08091CB0098E88927F1
:100340008093CB00912FECECF0E007C08AE580931E
:100350006200F8CF8D91819391509923D9F78CEC5D
:1003600090E0612F1ED01C5F109362001F910895D2
:10037000A82FB92F8FEF9FEF41E050EA615070F046
:100380002D9138E0722F782796958795269570FFE6
:1003900002C0842795273A95A9F7F0CF80959095CC
:1003A0000895E6DF8D939D930895CF93CFB7CF93B4
:1003B000809BFECF809B09C0809B07C0809B05C0AF
:1003C000809B03C0809B01C09EC0DF93C091D8007A
:1003D000DD27C152DF4F809B02C0DF91EBCF2F930F
:1003E0000F931F9300B32FEF00FB20F94F933F9320
:1003F00010B34FEF012700FB21F93BE031C04E7FE6
:10040000012F10B3216028C0102F4D7F2260000003
:1004100000B329C04B7F2460012F000010B32BC014
:1004200010B3477F28602AC04F7E00B320612CC0E4
:100430004F7D10B320622FC04F7B00B3206432C0C9
:10044000422700B349934FEF0000102710FB20F91B
:1004500010B31570A9F1297F91F2012700FB21F952
:1004600000B3237F89F23150F0F1102710FB22F9FD
:1004700010B3277E79F2012700FB23F92F7C81F24C
:1004800000B3102710FB24F92F7971F200C010B3CC
:10049000012700FB25F92F7359F200C000B3102784
:1004A00010FB26F9223040F200C010B3012700FBF8
:1004B00027F9243028F64F77206810B30000F9CFD1
:1004C0003B503195333010E41ABFB8F0C31BD04015
:1004D0000881033C41F10B3431F11981412F1F7721
:1004E0002091D600121731F4093691F10D3279F0CE
:1004F000013E69F022272093DD003F914F911F912B
:100500000F912F91DF91CF91CFBFCF91189500938D
:10051000DD003F914F911F910F912F91DF91CAB74D
:10052000C6FD46CFF0CF0091DD00002331F31091DE
:10053000DB001123A1F53430A2F13093DB000093EE
:10054000D7001091D8003BE0311B3093D80029C070
:100550000091DB0001301CF50AE547FD09C0309130
:10056000610034FD20C000936100C0ECD0E01FC0EA
:100570003091620034FD17C000936200CBECD0E0F4
:1005800016C0052710E002BB1FC0052722C00527A3
:1005900027C005272CC0052710E002BB33C04AE561
:1005A00003C042ED01C0432FC4E1D0E032E011B3FB
:1005B0001560909A02B311BB5F9355E020E820FFCD
:1005C000052702BB279517951C3FD8F620FF052766
:1005D000279502BB17951C3FC0F620FF05272795DE
:1005E000179502BB1C3F98F620FF05272795179506
:1005F0001C3F02BB70F600C0499120FF052702BBDB
:10060000279517951C3F38F620FF0527279502BB35
:1006100017951C3F38F520FF05272795179502BB36
:100620001C3F10F520FF0527279517951C3F02BB9F
:10063000E8F4242F3A9519F60A7F5F9102BB00C0B7
:100640001091DC00C651D04011F01093D60010E498
:100650001ABF016011B31A7F402F4A7F02BB11BB42
:1006600042BB4BCF0527D3CF0527D8CF0527DDCFFA
:10067000FC018081807641F58181863029F5838176
:100680008230D1F0823269F08130F1F480919F00A4
:100690009091A0009093DA008093D9008091A100FE
:1006A000089580919C0090919D009093DA00809332
:1006B000D90080919E00089583E690E09093DA003F
:1006C0008093D90082E2089580E00895FC0124EA35
:1006D00030E03093DA002093D90080818076803238
:1006E00019F58181813079F4E091A200F091A300A5
:1006F0000088F189E02DC9010995E091A200F091EF
:10070000A30080810895823041F48EEA90E09093B6
:10071000DA008093D90081E008958A3029F483813A
:100720008093AE0080E0089580E00895809162009B
:1007300084FF20C0E091A200F091A3000088F1891D
:10074000E02D84EA90E0099584EA90E068E0EDDD30
:1007500002C0D7DCA8958091620084FFFACF8CEAB2
:1007600090E060E0E2DD02C0CCDCA8958091620000
:1007700084FFFACF0895CF92DF92EF92FF920F930A
:100780001F93CF93DF9386B397D0FC019093A30080
:100790008093A2008481958190939D0080939C001A
:1007A000828180939E0080859185009731F090939F
:1007B000A00080939F00868107C084EA90E0909318
:1007C000A00080939F0076D18093A10080919E002D
:1007D00080937C0014BA9FE095BB17BA8FEF88BB5B
:1007E00088EF82BB85E081BB11BA83BF95BD84ECE5
:1007F00083BDE091A200F091A3000284F385E02D77
:10080000099575DC7894EE2401E010E0CC24C394C3
:1008100090E8D92ECCE2D1E004C0EE24E39400E0CD
:100820001F2DA8956EDC002341F0E091A200F0910D
:10083000A3000484F585E02D099508B600FE0EC0DE
:10084000C8BEF090AE00FF2049F0153018F4EE2439
:10085000E39405C08BEFF82EF10E01C0F12E08B61F
:1008600007FE20C0D8BEEE2001F585B7806885BFA1
:10087000889585B78F7785BFCE010197F1F7E09115
:10088000A200F091A3000484F585E02D0995E09184
:10089000A200F091A3000684F785E02D0995882336
:1008A00021F4BDCFEE2009F4BACF8091620084FF1D
:1008B000B4CF3CDFEE24B3CF82E690E090938A0081
:1008C0008093890085E890E00895009741F0DC016D
:1008D000E0EBF0E088E001900D928150E1F7A8EBA9
:1008E000B0E0E0EBF0E088E001900D928150E1F79C
:1008F00008958091970090919800892B31F0109283
:1009000098001092970081E0089580EB90E068EBEA
:1009100070E048E050E074D10895AF92BF92CF925A
:10092000DF92EF920F931F93DF93CF93CDB7DEB794
:1009300060970FB6F894DEBF0FBECDBF8091AF00B9
:10094000882321F0813009F09DC037C080EF898372
:1009500085E58A8382E562E070E05E010894A11C6F
:10096000B11CA50120E030E000E010E0EE24BAD098
:10097000882309F087C08CE291E00197F1F780E3CA
:1009800095E70197F1F78BEF89831A8282E562E0A0
:1009900070E0A50120E030E0A5D0882309F072C006
:1009A00081E08093AF0080E197E22CE231E0F90131
:1009B0003197F1F70197D9F765C0198282E561E0B7
:1009C00070E05E010894A11CB11CA50120E030E09C
:1009D00000E010E0EE2486D0882319F01092AF00DA
:1009E00051C030EBC32E34E0D32EC6010197F1F78E
:1009F00082E560E070E040E050E026E030E0850114
:100A0000EE2470D0C6010197F1F789818093B00080
:100A10008A8180958093B1006E81462F50E03B81A2
:100A2000CA018C7090709595879595958795232F21
:100A3000220F220F282B2093B2002C81822F829527
:100A4000807F3295369536953370832B4073507086
:100A5000440F551F440F551F842B8093B3009D8175
:100A6000892F8295880F880F807C22952F70822B8A
:100A70008093B400969596959093B50060956370B9
:100A80006093B60060960FB6F894DEBF0FBECDBF80
:100A9000CF91DF911F910F91EF90DF90CF90BF909A
:100AA000AF90089580E090E064E307D036DFA09A2D
:100AB000A898089582E190E00895892B19F085B3F4
:100AC000806302C085B38F7C85BB60B981B18C7FA8
:100AD00081B90895A89A06B607FEFDCFA89881B1FE
:100AE000887F08958F929F92BF92CF92DF92EF926C
:100AF000FF920F931F93CF93DF93B82E6B01EA0100
:100B0000790148016115710531F42115310551F55F
:100B10002FEF3FEF68C084EA86BFDCDF883019F032
:100B200021E030E060C08B2D880F83B984E886BF58
:100B3000D1DF883109F049C0860184E8D82E0CC085
:100B4000888183B9D6BEC6DF01501040883219F0C3
:100B500023E030E03CC021960115110589F7E1142E
:100B6000F10471F184EA86BFB5DF803129F0883065
:100B700019F024E030E02BC0BB0C81E0B82AB3B8F8
:100B800084E886BFA7DF8034B1F025E030E01FC0E5
:100B90000894E108F108E114F10411F016BF01C056
:100BA00006BF98DF803511F0883551F483B1F40128
:100BB00081934F0102C004E814ECE114F10441F701
:100BC00084E986BF20E030E00EC022E030E0803AC9
:100BD00031F0883F41F0883321F484E803C084EA8F
:100BE00001C084E986BFC901DF91CF911F910F91A8
:100BF000FF90EF90DF90CF90BF909F908F900895DF
:100C0000FB01DC0104C08D910190801921F4415059
:0E0C10005040C8F7881B990B0895F894FFCF49
:100C1E00FF5A5A0902220001010080320904000025
:100C2E000103000000092101010001220000070557
:100C3E00810308000A080042000000000000005274
:0A0C4E00058D04790465040100001F
:00000001FF
