:1000000054C0CDC16DC06CC06BC06AC069C068C04F
:1000100067C066C065C064C063C062C061C060C0C4
:100020005FC05EC05DC00403090418037200610074
:10003000700068006E00650074002E006E006500A0
:1000400074001603560069007200740075006100A8
:100050006C0042006F0079000A033100300030006C
:10006000300005010905A1010901A100093009318C
:1000700009330934150026FF00750895048102C074
:1000800005091901290A150025017501950A810242
:10009000750195068103C01201010100000008816D
:1000A000177D050001010203010011241FBECFE5E9
:1000B000D4E0DEBFCDBF10E0A0E6B0E0E8E8FBE0B2
:1000C00002C005900D92AA39B107D9F710E0AAE94C
:1000D000B0E001C01D92AD3EB107E1F721D352C59A
:1000E0008FCF85B7836085BF8BB780648BBF83EC70
:1000F0008093C30008950F931F93CF93DF93909144
:10010000D30019160CF0AFC02091D0008091CF0021
:100110008D3209F09EC08AE5809361009B3009F022
:1001200098C0CCE0D0E0C21BD109C952DF4F888112
:10013000807609F080C01092C1008981882359F42B
:100140001092C20081EC90E09093D2008093D10095
:1001500030E822E077C0853021F48A818093D40092
:1001600068C0863009F04AC08B81813009F441C0F3
:10017000823019F4CE0176D260C0833069F58A816D
:10018000882349F486E290E09093D2008093D100D6
:1001900030EC24E057C0813049F48AE290E090933B
:1001A000D2008093D10030EC28E14CC0823049F479
:1001B00082E490E09093D2008093D10030EC26E16D
:1001C00041C08330E9F588E590E09093D2008093B8
:1001D000D10030EC2CE036C0813249F48DEA90E059
:1001E0009093D2008093D10030EC29E02BC0823272
:1001F00039F5CE0137D2282F30EC24C0883019F4DD
:1002000086ED90E00AC0893021F48A818093D6007F
:1002100010C08A3049F481EC90E09093D200809332
:10022000D10030E821E00EC08B3019F483EC8093CC
:10023000C30030E806C0CE0143D2282F30E802C008
:1002400030EC20E08F81882339F48E81821728F0EA
:1002500003C030E880E001C0822F30939A00809381
:1002600060001092D3008091610084FF49C08091AA
:1002700060008F3F09F444C0182F893008F018E05F
:10028000811B8093600080919A0080FD02C00BE486
:1002900001C003EC8F5F80939A002091D1003091D0
:1002A000D20086FD05C0D901912FE9EBF0E011C025
:1002B000A9EBB0E080E090E006C0F901E80FF91F7B
:1002C000E491ED9301961817C1F705C08D918193C4
:1002D00091509923D9F7F901E10FF11DF093D20064
:1002E000E093D10089EB90E0612F55D0183019F0E0
:1002F0008FEF809360000093B8001C5F1093610043
:100300009AE080B3857031F49150D9F71092D400FF
:100310001092CE00DF91CF911F910F9108951F93FE
:10032000DC01162F8091620084FF0AC08091C30017
:1003300098E889278093C300912FE4ECF0E007C090
:100340008AE580936200F8CF8D9181939150992333
:10035000D9F784EC90E0612F1ED01C5F10936200EF
:100360001F910895A82FB92F8FEF9FEF41E050EA1A
:10037000615070F02D9138E0722F7827969587950F
:10038000269570FF02C0842795273A95A9F7F0CFEC
:10039000809590950895E6DF8D939D930895CF9372
:1003A000CFB7CF93809BFECF809B09C0809B07C0B7
:1003B000809B05C0809B03C0809B01C09EC0DF93D3
:1003C000C091D000DD27C952DF4F809B02C0DF9172
:1003D000EBCF2F930F931F9300B32FEF00FB20F968
:1003E0004F933F9310B34FEF012700FB21F93BE000
:1003F00031C04E7F012F10B3216028C0102F4D7FD8
:100400002260000000B329C04B7F2460012F000050
:1004100010B32BC010B3477F28602AC04F7E00B3B3
:1004200020612CC04F7D10B320622FC04F7B00B3E2
:10043000206432C0422700B349934FEF00001027D9
:1004400010FB20F910B31570A9F1297F91F2012753
:1004500000FB21F900B3237F89F23150F0F110271E
:1004600010FB22F910B3277E79F2012700FB23F954
:100470002F7C81F200B3102710FB24F92F7971F241
:1004800000C010B3012700FB25F92F7359F200C0FB
:1004900000B3102710FB26F9223040F200C010B341
:1004A000012700FB27F9243028F64F77206810B386
:1004B0000000F9CF3B503195333010E41ABFB8F04B
:1004C000C31BD0400881033C41F10B3431F1198149
:1004D000412F1F772091CE00121731F4093691F188
:1004E0000D3279F0013E69F022272093D5003F912B
:1004F0004F911F910F912F91DF91CF91CFBFCF914E
:1005000018950093D5003F914F911F910F912F9116
:10051000DF91CAB7C6FD46CFF0CF0091D5000023CA
:1005200031F31091D3001123A1F53430A2F13093AF
:10053000D3000093CF001091D0003BE0311B3093EB
:10054000D00029C00091D30001301CF50AE547FD19
:1005500009C03091610034FD20C000936100C8EBF8
:10056000D0E01FC03091620034FD17C000936200DC
:10057000C3ECD0E016C0052710E002BB1FC0052762
:1005800022C0052727C005272CC0052710E002BB85
:1005900033C04AE503C042ED01C0432FC4E1D0E0BF
:1005A00032E011B31560909A02B311BB5F9355E02E
:1005B00020E820FF052702BB279517951C3FD8F69A
:1005C00020FF0527279502BB17951C3FC0F620FF8B
:1005D00005272795179502BB1C3F98F620FF052796
:1005E000279517951C3F02BB70F600C0499120FF6C
:1005F000052702BB279517951C3F38F620FF0527D6
:10060000279502BB17951C3F38F520FF0527279536
:10061000179502BB1C3F10F520FF0527279517955E
:100620001C3F02BBE8F4242F3A9519F60A7F5F912C
:1006300002BB00C01091D400C651D04011F01093FD
:10064000CE0010E41ABF016011B31A7F402F4A7F19
:1006500002BB11BB42BB4BCF0527D3CF0527D8CF59
:100660000527DDCFFC018081807641F581818630D0
:1006700029F583818230D1F0823269F08130F1F442
:1006800080919F009091A0009093D2008093D10020
:100690008091A100089580919C0090919D0090937D
:1006A000D2008093D10080919E00089583E690E06F
:1006B0009093D2008093D10082E2089580E0089563
:1006C000FC0124EA30E03093D2002093D1008081F5
:1006D0008076803219F58181813079F4E091A20031
:1006E000F091A3000088F189E02DC9010995E091FE
:1006F000A200F091A30080810895823041F48AEA3B
:1007000090E09093D2008093D10081E008958A30E8
:1007100029F483818093AA0080E0089580E0089501
:10072000CF92DF92EF92FF920F931F93CF93DF93BD
:1007300086B3A8D0FC019093A3008093A20084818B
:10074000958190939D0080939C00828180939E0070
:1007500080859185009731F09093A00080939F0051
:10076000868107C087E990E09093A00080939F0066
:1007700056D18093A10080919E0080937C0014BA92
:100780009FE095BB17BA8FEF88BB88EF82BB85E0EF
:1007900081BB11BA83BF95BD84EC83BDE091A200FB
:1007A000F091A3000284F385E02D09959ADC7894FA
:1007B000FF2401E010E0CC24C39490E8D92ECCE2D1
:1007C000D1E004C0FF24F39400E01E2DA89593DC33
:1007D000002341F0E091A200F091A3000484F5858C
:1007E000E02D099508B600FE0EC0C8BEE090AA0034
:1007F000EE2049F0153018F4FF24F39405C08BEF78
:10080000E82EE10E01C0E12E08B607FE20C0D8BEDA
:10081000FF2001F585B7806885BF889585B78F77FC
:1008200085BFCE010197F1F7E091A200F091A300FE
:100830000484F585E02D0995E091A200F091A300D4
:100840000684F785E02D0995882321F4BDCFFF208C
:1008500009F4BACF8091620084FFB4CFE091A20086
:10086000F091A3000088F189E02D84EA90E00995D9
:10087000E091A200F091A30084EA90E060814FDD56
:10088000FF24A2CF82E690E090938A0080938900B3
:1008900085E890E00895009741F0DC01ECEAF0E093
:1008A00086E001900D928150E1F7A2EBB0E0ECEA16
:1008B000F0E086E001900D928150E1F7089580917B
:1008C000970090919800892B31F010929800109227
:1008D000970081E008958CEA90E062EB70E046E0DA
:1008E00050E043D10895AF92BF92CF92DF92EF9242
:1008F0000F931F93DF93CF93CDB7DEB760970FB6FB
:10090000F894DEBF0FBECDBF8091AB00882321F0ED
:10091000813009F06CC037C080EF898385E58A8318
:1009200082E562E070E05E010894A11CB11CA501A3
:1009300020E030E000E010E0EE2489D0882309F0C8
:1009400056C08CE291E00197F1F780E395E70197BB
:10095000F1F78BEF89831A8282E562E070E0A501EE
:1009600020E030E074D0882309F041C081E080931A
:10097000AB0080E197E22CE231E0F9013197F1F729
:100980000197D9F734C0198282E561E070E05E0119
:100990000894A11CB11CA50120E030E000E010E0AB
:1009A000EE2455D0882319F01092AB0020C080EBC4
:1009B000C82E84E0D82EC6010197F1F782E560E0E9
:1009C00070E040E050E026E030E08501EE243FD0CA
:1009D000C6010197F1F789818093AC008A818093E9
:1009E000AD008B818093AE008C818093AF006096C8
:1009F0000FB6F894DEBF0FBECDBFCF91DF911F9130
:100A00000F91EF90DF90CF90BF90AF90089580E06E
:100A100090E064E307D067DFA09AA898089582E188
:100A200090E00895892B19F085B3806302C085B3E7
:100A30008F7C85BB60B981B18C7F81B90895A89AFC
:100A400006B607FEFDCFA89881B1887F08958F92E2
:100A50009F92BF92CF92DF92EF92FF920F931F93DC
:100A6000CF93DF93B82E6B01EA017901480161153C
:100A7000710531F42115310551F52FEF3FEF68C0B5
:100A800084EA86BFDCDF883019F021E030E060C006
:100A90008B2D880F83B984E886BFD1DF883109F0B8
:100AA00049C0860184E8D82E0CC0888183B9D6BE9F
:100AB000C6DF01501040883219F023E030E03CC01E
:100AC00021960115110589F7E114F10471F184EA09
:100AD00086BFB5DF803129F0883019F024E030E09E
:100AE0002BC0BB0C81E0B82AB3B884E886BFA7DF6F
:100AF0008034B1F025E030E01FC00894E108F1082F
:100B0000E114F10411F016BF01C006BF98DF803573
:100B100011F0883551F483B1F40181934F0102C083
:100B200004E814ECE114F10441F784E986BF20E005
:100B300030E00EC022E030E0803A31F0883F41F0F2
:100B4000883321F484E803C084EA01C084E986BFC5
:100B5000C901DF91CF911F910F91FF90EF90DF902E
:100B6000CF90BF909F908F900895FB01DC0104C04F
:100B70008D910190801921F441505040C8F7881B95
:080B8000990B0895F894FFCFD2
:100B8800FF5A5A09022200010100803209040000BC
:100B980001030000000921010100012200000705EE
:100BA800810308000A060035000000000000000765
:0A0BB8000573045F044B0401000004
:00000001FF
